{
	"info": {
		"_postman_id": "3c623943-aaaf-49d4-bddf-b98ed5d5dc96",
		"name": "BTC",
		"schema": "https://schema.getpostman.com/json/collection/v2.1.0/collection.json"
	},
	"item": [
		{
			"name": "Request for second wallet",
			"item": [
				{
					"name": "Get Address Info",
					"request": {
						"auth": {
							"type": "basic",
							"basic": [
								{
									"key": "password",
									"value": "password123123",
									"type": "string"
								},
								{
									"key": "username",
									"value": "uuuset",
									"type": "string"
								}
							]
						},
						"method": "POST",
						"header": [],
						"body": {
							"mode": "raw",
							"raw": "{\n  \"jsonrpc\": \"2.0\",\n  \"method\": \"getaddressinfo\",\n  \"params\": [\"mmfbzo2533SFa34ErmYNY4RdVtfw5XYK1u\"]\n}",
							"options": {
								"raw": {
									"language": "json"
								}
							}
						},
						"url": {
							"raw": "{{host}}/wallet/second",
							"host": [
								"{{host}}"
							],
							"path": [
								"wallet",
								"second"
							]
						}
					},
					"response": []
				},
				{
					"name": "Import private key",
					"request": {
						"auth": {
							"type": "basic",
							"basic": [
								{
									"key": "password",
									"value": "password123123",
									"type": "string"
								},
								{
									"key": "username",
									"value": "uuuset",
									"type": "string"
								}
							]
						},
						"method": "POST",
						"header": [],
						"body": {
							"mode": "raw",
							"raw": "{\n  \"jsonrpc\": \"2.0\",\n  \"method\": \"importprivkey\",\n  \"params\": [\"cP4dZeLM1U39DAaui6q4rF2KwMXPJSA67znfJ2Y22CdzbqVMp2mb\", \"\", true]\n}",
							"options": {
								"raw": {
									"language": "json"
								}
							}
						},
						"url": {
							"raw": "{{host}}/wallet/second",
							"host": [
								"{{host}}"
							],
							"path": [
								"wallet",
								"second"
							]
						}
					},
					"response": []
				},
				{
					"name": "Dump Private key",
					"request": {
						"auth": {
							"type": "basic",
							"basic": [
								{
									"key": "password",
									"value": "password123123",
									"type": "string"
								},
								{
									"key": "username",
									"value": "uuuset",
									"type": "string"
								}
							]
						},
						"method": "POST",
						"header": [],
						"body": {
							"mode": "raw",
							"raw": "{\n  \"jsonrpc\": \"2.0\",\n  \"method\": \"dumpprivkey\",\n  \"params\": [\"mmfbzo2533SFa34ErmYNY4RdVtfw5XYK1u\"]\n}",
							"options": {
								"raw": {
									"language": "json"
								}
							}
						},
						"url": {
							"raw": "{{host}}/wallet/second",
							"host": [
								"{{host}}"
							],
							"path": [
								"wallet",
								"second"
							]
						}
					},
					"response": []
				},
				{
					"name": "Get Balance",
					"request": {
						"auth": {
							"type": "basic",
							"basic": [
								{
									"key": "password",
									"value": "password123123",
									"type": "string"
								},
								{
									"key": "username",
									"value": "uuuset",
									"type": "string"
								}
							]
						},
						"method": "POST",
						"header": [],
						"body": {
							"mode": "raw",
							"raw": "{\n  \"jsonrpc\": \"2.0\",\n  \"method\": \"getbalance\",\n  \"params\": [\"*\", 6]\n}",
							"options": {
								"raw": {
									"language": "json"
								}
							}
						},
						"url": {
							"raw": "{{host}}/wallet/second",
							"host": [
								"{{host}}"
							],
							"path": [
								"wallet",
								"second"
							]
						}
					},
					"response": []
				},
				{
					"name": "List unspent",
					"request": {
						"auth": {
							"type": "basic",
							"basic": [
								{
									"key": "password",
									"value": "password123123",
									"type": "string"
								},
								{
									"key": "username",
									"value": "uuuset",
									"type": "string"
								}
							]
						},
						"method": "POST",
						"header": [],
						"body": {
							"mode": "raw",
							"raw": "{\n  \"jsonrpc\": \"2.0\",\n  \"method\": \"listunspent\",\n  \"params\": [1, 9999999, []]\n}",
							"options": {
								"raw": {
									"language": "json"
								}
							}
						},
						"url": {
							"raw": "{{host}}/wallet/second",
							"host": [
								"{{host}}"
							],
							"path": [
								"wallet",
								"second"
							]
						}
					},
					"response": []
				},
				{
					"name": "Get wallet info",
					"request": {
						"auth": {
							"type": "basic",
							"basic": [
								{
									"key": "password",
									"value": "password123123",
									"type": "string"
								},
								{
									"key": "username",
									"value": "uuuset",
									"type": "string"
								}
							]
						},
						"method": "POST",
						"header": [],
						"body": {
							"mode": "raw",
							"raw": "{\n  \"jsonrpc\": \"2.0\",\n  \"method\": \"getwalletinfo\",\n  \"params\": []\n}",
							"options": {
								"raw": {
									"language": "json"
								}
							}
						},
						"url": {
							"raw": "{{host}}/wallet/second",
							"host": [
								"{{host}}"
							],
							"path": [
								"wallet",
								"second"
							]
						}
					},
					"response": []
				},
				{
					"name": "Encrypt wallet",
					"request": {
						"auth": {
							"type": "basic",
							"basic": [
								{
									"key": "password",
									"value": "password123123",
									"type": "string"
								},
								{
									"key": "username",
									"value": "uuuset",
									"type": "string"
								}
							]
						},
						"method": "POST",
						"header": [],
						"body": {
							"mode": "raw",
							"raw": "{\n  \"jsonrpc\": \"2.0\",\n  \"method\": \"encryptwallet\",\n  \"params\": [\"password\"]\n}",
							"options": {
								"raw": {
									"language": "json"
								}
							}
						},
						"url": {
							"raw": "{{host}}/wallet/second",
							"host": [
								"{{host}}"
							],
							"path": [
								"wallet",
								"second"
							]
						}
					},
					"response": []
				},
				{
					"name": "Unlock wallet",
					"request": {
						"auth": {
							"type": "basic",
							"basic": [
								{
									"key": "password",
									"value": "password123123",
									"type": "string"
								},
								{
									"key": "username",
									"value": "uuuset",
									"type": "string"
								}
							]
						},
						"method": "POST",
						"header": [],
						"body": {
							"mode": "raw",
							"raw": "{\n  \"jsonrpc\": \"2.0\",\n  \"method\": \"walletpassphrase\",\n  \"params\": [\"password\", 60]\n}",
							"options": {
								"raw": {
									"language": "json"
								}
							}
						},
						"url": {
							"raw": "{{host}}/wallet/second",
							"host": [
								"{{host}}"
							],
							"path": [
								"wallet",
								"second"
							]
						}
					},
					"response": []
				},
				{
					"name": "Import address",
					"request": {
						"auth": {
							"type": "basic",
							"basic": [
								{
									"key": "password",
									"value": "password123123",
									"type": "string"
								},
								{
									"key": "username",
									"value": "uuuset",
									"type": "string"
								}
							]
						},
						"method": "POST",
						"header": [],
						"body": {
							"mode": "raw",
							"raw": "{\r\n  \"jsonrpc\": \"2.0\",\r\n  \"method\": \"importaddress\",\r\n  \"params\": [\"mmfbzo2533SFa34ErmYNY4RdVtfw5XYK1u\", \"\", false]\r\n}",
							"options": {
								"raw": {
									"language": "json"
								}
							}
						},
						"url": {
							"raw": "{{host}}/wallet/second",
							"host": [
								"{{host}}"
							],
							"path": [
								"wallet",
								"second"
							]
						}
					},
					"response": []
				},
				{
					"name": "Create wallet",
					"request": {
						"auth": {
							"type": "basic",
							"basic": [
								{
									"key": "password",
									"value": "password123123",
									"type": "string"
								},
								{
									"key": "username",
									"value": "uuuset",
									"type": "string"
								}
							]
						},
						"method": "POST",
						"header": [],
						"body": {
							"mode": "raw",
							"raw": "{\n  \"jsonrpc\": \"2.0\",\n  \"method\": \"createwallet\",\n  \"params\": [\"second\"]\n}",
							"options": {
								"raw": {
									"language": "json"
								}
							}
						},
						"url": {
							"raw": "{{host}}",
							"host": [
								"{{host}}"
							]
						}
					},
					"response": []
				},
				{
					"name": "Load BTC wallet",
					"request": {
						"auth": {
							"type": "basic",
							"basic": [
								{
									"key": "password",
									"value": "password123123",
									"type": "string"
								},
								{
									"key": "username",
									"value": "uuuset",
									"type": "string"
								}
							]
						},
						"method": "POST",
						"header": [],
						"body": {
							"mode": "raw",
							"raw": "{\n  \"jsonrpc\": \"2.0\",\n  \"method\": \"loadwallet\",\n  \"params\": [\"second\"]\n}",
							"options": {
								"raw": {
									"language": "json"
								}
							}
						},
						"url": {
							"raw": "{{host}}",
							"host": [
								"{{host}}"
							]
						}
					},
					"response": []
				},
				{
					"name": "UnLoad BTC wallet",
					"request": {
						"auth": {
							"type": "basic",
							"basic": [
								{
									"key": "password",
									"value": "password123123",
									"type": "string"
								},
								{
									"key": "username",
									"value": "uuuset",
									"type": "string"
								}
							]
						},
						"method": "POST",
						"header": [],
						"body": {
							"mode": "raw",
							"raw": "{\n  \"jsonrpc\": \"2.0\",\n  \"method\": \"unloadwallet\",\n  \"params\": [\"second\"]\n}",
							"options": {
								"raw": {
									"language": "json"
								}
							}
						},
						"url": {
							"raw": "{{host}}",
							"host": [
								"{{host}}"
							]
						}
					},
					"response": []
				},
				{
					"name": "Scan Tx Out",
					"request": {
						"auth": {
							"type": "basic",
							"basic": [
								{
									"key": "password",
									"value": "password123123",
									"type": "string"
								},
								{
									"key": "username",
									"value": "uuuset",
									"type": "string"
								}
							]
						},
						"method": "POST",
						"header": [],
						"body": {
							"mode": "raw",
							"raw": "{\r\n  \"jsonrpc\": \"2.0\",\r\n  \"method\": \"scantxoutset\",\r\n  \"params\": [\"start\", [\"addr(mmfbzo2533SFa34ErmYNY4RdVtfw5XYK1u)\"]]\r\n}",
							"options": {
								"raw": {
									"language": "json"
								}
							}
						},
						"url": {
							"raw": "{{host}}/wallet/second",
							"host": [
								"{{host}}"
							],
							"path": [
								"wallet",
								"second"
							]
						}
					},
					"response": []
				},
				{
					"name": "Send to Wallet",
					"request": {
						"auth": {
							"type": "basic",
							"basic": [
								{
									"key": "password",
									"value": "password123123",
									"type": "string"
								},
								{
									"key": "username",
									"value": "uuuset",
									"type": "string"
								}
							]
						},
						"method": "POST",
						"header": [],
						"body": {
							"mode": "raw",
							"raw": "{\r\n  \"jsonrpc\": \"2.0\",\r\n  \"method\": \"sendtoaddress\",\r\n  \"params\": [\"mq6Qd7JJKsgBYkMFsGCk24MHMxUkuyTnkU\", 0.00010222]\r\n}",
							"options": {
								"raw": {
									"language": "json"
								}
							}
						},
						"url": {
							"raw": "{{host}}/wallet/second",
							"host": [
								"{{host}}"
							],
							"path": [
								"wallet",
								"second"
							]
						}
					},
					"response": []
				},
				{
					"name": "Transaction List",
					"request": {
						"auth": {
							"type": "basic",
							"basic": [
								{
									"key": "password",
									"value": "password123123",
									"type": "string"
								},
								{
									"key": "username",
									"value": "uuuset",
									"type": "string"
								}
							]
						},
						"method": "POST",
						"header": [],
						"body": {
							"mode": "raw",
							"raw": "{\r\n  \"jsonrpc\": \"2.0\",\r\n  \"method\": \"listtransactions\",\r\n  \"params\": [\"*\", 1]\r\n}",
							"options": {
								"raw": {
									"language": "json"
								}
							}
						},
						"url": {
							"raw": "{{host}}/wallet/second",
							"host": [
								"{{host}}"
							],
							"path": [
								"wallet",
								"second"
							]
						}
					},
					"response": []
				},
				{
					"name": "Fund for transaction",
					"request": {
						"auth": {
							"type": "basic",
							"basic": [
								{
									"key": "password",
									"value": "password123123",
									"type": "string"
								},
								{
									"key": "username",
									"value": "uuuset",
									"type": "string"
								}
							]
						},
						"method": "POST",
						"header": [],
						"body": {
							"mode": "raw",
							"raw": "{\r\n  \"jsonrpc\": \"2.0\",\r\n  \"method\": \"fundrawtransaction\",\r\n  \"params\": [\"020000000275f7d38aff1b5f4a78e029bec0ba6bfe3425af6832546ddcd4f2a95b056267410100000000ffffffffc4ee1493e2ab98fec811d830f4be3de15bde108fea8ed2a427b974accf9c31a70100000000ffffffff01e8030000000000001976a91443738e06bb02b07ad9c67e9480918d5df41fe35588ac00000000\"]\r\n}",
							"options": {
								"raw": {
									"language": "json"
								}
							}
						},
						"url": {
							"raw": "{{host}}/wallet/second",
							"host": [
								"{{host}}"
							],
							"path": [
								"wallet",
								"second"
							]
						}
					},
					"response": []
				}
			]
		},
		{
			"name": "Request for first wallet",
			"item": [
				{
					"name": "Get Address Info",
					"request": {
						"auth": {
							"type": "basic",
							"basic": [
								{
									"key": "password",
									"value": "password123123",
									"type": "string"
								},
								{
									"key": "username",
									"value": "uuuset",
									"type": "string"
								}
							]
						},
						"method": "POST",
						"header": [],
						"body": {
							"mode": "raw",
							"raw": "{\n  \"jsonrpc\": \"2.0\",\n  \"method\": \"getaddressinfo\",\n  \"params\": [\"mq6Qd7JJKsgBYkMFsGCk24MHMxUkuyTnkU\"]\n}",
							"options": {
								"raw": {
									"language": "json"
								}
							}
						},
						"url": {
							"raw": "{{host}}/wallet/first",
							"host": [
								"{{host}}"
							],
							"path": [
								"wallet",
								"first"
							]
						}
					},
					"response": []
				},
				{
					"name": "Import private key",
					"request": {
						"auth": {
							"type": "basic",
							"basic": [
								{
									"key": "password",
									"value": "password123123",
									"type": "string"
								},
								{
									"key": "username",
									"value": "uuuset",
									"type": "string"
								}
							]
						},
						"method": "POST",
						"header": [],
						"body": {
							"mode": "raw",
							"raw": "{\n  \"jsonrpc\": \"2.0\",\n  \"method\": \"importprivkey\",\n  \"params\": [\"cPRZfnSdhrLvetS9KySaxdqD99yoy1mD3tHhDaMRDqM1gdWf36KD\", \"\", true]\n}",
							"options": {
								"raw": {
									"language": "json"
								}
							}
						},
						"url": {
							"raw": "{{host}}/wallet/first",
							"host": [
								"{{host}}"
							],
							"path": [
								"wallet",
								"first"
							]
						}
					},
					"response": []
				},
				{
					"name": "Dump Private key",
					"request": {
						"auth": {
							"type": "basic",
							"basic": [
								{
									"key": "password",
									"value": "password123123",
									"type": "string"
								},
								{
									"key": "username",
									"value": "uuuset",
									"type": "string"
								}
							]
						},
						"method": "POST",
						"header": [],
						"body": {
							"mode": "raw",
							"raw": "{\n  \"jsonrpc\": \"2.0\",\n  \"method\": \"dumpprivkey\",\n  \"params\": [\"mq6Qd7JJKsgBYkMFsGCk24MHMxUkuyTnkU\"]\n}",
							"options": {
								"raw": {
									"language": "json"
								}
							}
						},
						"url": {
							"raw": "{{host}}/wallet/first",
							"host": [
								"{{host}}"
							],
							"path": [
								"wallet",
								"first"
							]
						}
					},
					"response": []
				},
				{
					"name": "Get Balance",
					"request": {
						"auth": {
							"type": "basic",
							"basic": [
								{
									"key": "password",
									"value": "password123123",
									"type": "string"
								},
								{
									"key": "username",
									"value": "uuuset",
									"type": "string"
								}
							]
						},
						"method": "POST",
						"header": [],
						"body": {
							"mode": "raw",
							"raw": "{\n  \"jsonrpc\": \"2.0\",\n  \"method\": \"getbalance\",\n  \"params\": [\"*\", 6]\n}",
							"options": {
								"raw": {
									"language": "json"
								}
							}
						},
						"url": {
							"raw": "{{host}}/wallet/first",
							"host": [
								"{{host}}"
							],
							"path": [
								"wallet",
								"first"
							]
						}
					},
					"response": []
				},
				{
					"name": "List unspent",
					"request": {
						"auth": {
							"type": "basic",
							"basic": [
								{
									"key": "password",
									"value": "password123123",
									"type": "string"
								},
								{
									"key": "username",
									"value": "uuuset",
									"type": "string"
								}
							]
						},
						"method": "POST",
						"header": [],
						"body": {
							"mode": "raw",
							"raw": "{\n  \"jsonrpc\": \"2.0\",\n  \"method\": \"listunspent\",\n  \"params\": [1, 9999999, [\"mq6Qd7JJKsgBYkMFsGCk24MHMxUkuyTnkU\"]]\n}",
							"options": {
								"raw": {
									"language": "json"
								}
							}
						},
						"url": {
							"raw": "{{host}}/wallet/first",
							"host": [
								"{{host}}"
							],
							"path": [
								"wallet",
								"first"
							]
						}
					},
					"response": []
				},
				{
					"name": "Get wallet info",
					"request": {
						"auth": {
							"type": "basic",
							"basic": [
								{
									"key": "password",
									"value": "password123123",
									"type": "string"
								},
								{
									"key": "username",
									"value": "uuuset",
									"type": "string"
								}
							]
						},
						"method": "POST",
						"header": [],
						"body": {
							"mode": "raw",
							"raw": "{\n  \"jsonrpc\": \"2.0\",\n  \"method\": \"getwalletinfo\",\n  \"params\": []\n}",
							"options": {
								"raw": {
									"language": "json"
								}
							}
						},
						"url": {
							"raw": "{{host}}/wallet/first",
							"host": [
								"{{host}}"
							],
							"path": [
								"wallet",
								"first"
							]
						}
					},
					"response": []
				},
				{
					"name": "Encrypt wallet",
					"request": {
						"auth": {
							"type": "basic",
							"basic": [
								{
									"key": "password",
									"value": "password123123",
									"type": "string"
								},
								{
									"key": "username",
									"value": "uuuset",
									"type": "string"
								}
							]
						},
						"method": "POST",
						"header": [],
						"body": {
							"mode": "raw",
							"raw": "{\n  \"jsonrpc\": \"2.0\",\n  \"method\": \"encryptwallet\",\n  \"params\": [\"password\"]\n}",
							"options": {
								"raw": {
									"language": "json"
								}
							}
						},
						"url": {
							"raw": "{{host}}/wallet/first",
							"host": [
								"{{host}}"
							],
							"path": [
								"wallet",
								"first"
							]
						}
					},
					"response": []
				},
				{
					"name": "Unlock wallet",
					"request": {
						"auth": {
							"type": "basic",
							"basic": [
								{
									"key": "password",
									"value": "password123123",
									"type": "string"
								},
								{
									"key": "username",
									"value": "uuuset",
									"type": "string"
								}
							]
						},
						"method": "POST",
						"header": [],
						"body": {
							"mode": "raw",
							"raw": "{\n  \"jsonrpc\": \"2.0\",\n  \"method\": \"walletpassphrase\",\n  \"params\": [\"password\", 60]\n}",
							"options": {
								"raw": {
									"language": "json"
								}
							}
						},
						"url": {
							"raw": "{{host}}/wallet/first",
							"host": [
								"{{host}}"
							],
							"path": [
								"wallet",
								"first"
							]
						}
					},
					"response": []
				},
				{
					"name": "Import address",
					"request": {
						"auth": {
							"type": "basic",
							"basic": [
								{
									"key": "password",
									"value": "password123123",
									"type": "string"
								},
								{
									"key": "username",
									"value": "uuuset",
									"type": "string"
								}
							]
						},
						"method": "POST",
						"header": [],
						"body": {
							"mode": "raw",
							"raw": "{\r\n  \"jsonrpc\": \"2.0\",\r\n  \"method\": \"importaddress\",\r\n  \"params\": [\"mq6Qd7JJKsgBYkMFsGCk24MHMxUkuyTnkU\", \"\", false]\r\n}",
							"options": {
								"raw": {
									"language": "json"
								}
							}
						},
						"url": {
							"raw": "{{host}}/wallet/first",
							"host": [
								"{{host}}"
							],
							"path": [
								"wallet",
								"first"
							]
						}
					},
					"response": []
				},
				{
					"name": "Create wallet",
					"request": {
						"auth": {
							"type": "basic",
							"basic": [
								{
									"key": "password",
									"value": "password123123",
									"type": "string"
								},
								{
									"key": "username",
									"value": "uuuset",
									"type": "string"
								}
							]
						},
						"method": "POST",
						"header": [],
						"body": {
							"mode": "raw",
							"raw": "{\n  \"jsonrpc\": \"2.0\",\n  \"method\": \"createwallet\",\n  \"params\": [\"first\"]\n}",
							"options": {
								"raw": {
									"language": "json"
								}
							}
						},
						"url": {
							"raw": "{{host}}",
							"host": [
								"{{host}}"
							]
						}
					},
					"response": []
				},
				{
					"name": "Load BTC wallet",
					"request": {
						"auth": {
							"type": "basic",
							"basic": [
								{
									"key": "password",
									"value": "password123123",
									"type": "string"
								},
								{
									"key": "username",
									"value": "uuuset",
									"type": "string"
								}
							]
						},
						"method": "POST",
						"header": [],
						"body": {
							"mode": "raw",
							"raw": "{\n  \"jsonrpc\": \"2.0\",\n  \"method\": \"loadwallet\",\n  \"params\": [\"first\"]\n}",
							"options": {
								"raw": {
									"language": "json"
								}
							}
						},
						"url": {
							"raw": "{{host}}",
							"host": [
								"{{host}}"
							]
						}
					},
					"response": []
				},
				{
					"name": "UnLoad BTC wallet",
					"request": {
						"auth": {
							"type": "basic",
							"basic": [
								{
									"key": "password",
									"value": "password123123",
									"type": "string"
								},
								{
									"key": "username",
									"value": "uuuset",
									"type": "string"
								}
							]
						},
						"method": "POST",
						"header": [],
						"body": {
							"mode": "raw",
							"raw": "{\n  \"jsonrpc\": \"2.0\",\n  \"method\": \"unloadwallet\",\n  \"params\": [\"first\"]\n}",
							"options": {
								"raw": {
									"language": "json"
								}
							}
						},
						"url": {
							"raw": "{{host}}",
							"host": [
								"{{host}}"
							]
						}
					},
					"response": []
				},
				{
					"name": "Scan Tx Out",
					"request": {
						"auth": {
							"type": "basic",
							"basic": [
								{
									"key": "password",
									"value": "password123123",
									"type": "string"
								},
								{
									"key": "username",
									"value": "uuuset",
									"type": "string"
								}
							]
						},
						"method": "POST",
						"header": [],
						"body": {
							"mode": "raw",
							"raw": "{\r\n  \"jsonrpc\": \"2.0\",\r\n  \"method\": \"scantxoutset\",\r\n  \"params\": [\"start\", [\"addr(mq6Qd7JJKsgBYkMFsGCk24MHMxUkuyTnkU)\"]]\r\n}",
							"options": {
								"raw": {
									"language": "json"
								}
							}
						},
						"url": {
							"raw": "{{host}}/wallet/first",
							"host": [
								"{{host}}"
							],
							"path": [
								"wallet",
								"first"
							]
						}
					},
					"response": []
				},
				{
					"name": "Send to Wallet",
					"request": {
						"auth": {
							"type": "basic",
							"basic": [
								{
									"key": "password",
									"value": "password123123",
									"type": "string"
								},
								{
									"key": "username",
									"value": "uuuset",
									"type": "string"
								}
							]
						},
						"method": "POST",
						"header": [],
						"body": {
							"mode": "raw",
							"raw": "{\r\n  \"jsonrpc\": \"2.0\",\r\n  \"method\": \"sendtoaddress\",\r\n  \"params\": [\"mmfbzo2533SFa34ErmYNY4RdVtfw5XYK1u\", 0.00110175]\r\n}",
							"options": {
								"raw": {
									"language": "json"
								}
							}
						},
						"url": {
							"raw": "{{host}}/wallet/first",
							"host": [
								"{{host}}"
							],
							"path": [
								"wallet",
								"first"
							]
						}
					},
					"response": []
				},
				{
					"name": "Transaction List",
					"request": {
						"auth": {
							"type": "basic",
							"basic": [
								{
									"key": "password",
									"value": "password123123",
									"type": "string"
								},
								{
									"key": "username",
									"value": "uuuset",
									"type": "string"
								}
							]
						},
						"method": "POST",
						"header": [],
						"body": {
							"mode": "raw",
							"raw": "{\r\n  \"jsonrpc\": \"2.0\",\r\n  \"method\": \"listtransactions\",\r\n  \"params\": [\"*\", 1000000]\r\n}",
							"options": {
								"raw": {
									"language": "json"
								}
							}
						},
						"url": {
							"raw": "{{host}}/wallet/first",
							"host": [
								"{{host}}"
							],
							"path": [
								"wallet",
								"first"
							]
						}
					},
					"response": []
				},
				{
					"name": "Fund for transaction",
					"request": {
						"auth": {
							"type": "basic",
							"basic": [
								{
									"key": "password",
									"value": "password123123",
									"type": "string"
								},
								{
									"key": "username",
									"value": "uuuset",
									"type": "string"
								}
							]
						},
						"method": "POST",
						"header": [],
						"body": {
							"mode": "raw",
							"raw": "{\r\n  \"jsonrpc\": \"2.0\",\r\n  \"method\": \"fundrawtransaction\",\r\n  \"params\": [\"020000000275f7d38aff1b5f4a78e029bec0ba6bfe3425af6832546ddcd4f2a95b056267410100000000ffffffffc4ee1493e2ab98fec811d830f4be3de15bde108fea8ed2a427b974accf9c31a70100000000ffffffff01983a0000000000001976a91443738e06bb02b07ad9c67e9480918d5df41fe35588ac00000000\", {\"changeAddress\": \"mq6Qd7JJKsgBYkMFsGCk24MHMxUkuyTnkU\", \"subtractFeeFromOutputs\": [0]}]\r\n}",
							"options": {
								"raw": {
									"language": "json"
								}
							}
						},
						"url": {
							"raw": "{{host}}/wallet/first",
							"host": [
								"{{host}}"
							],
							"path": [
								"wallet",
								"first"
							]
						}
					},
					"response": []
				}
			]
		},
		{
			"name": "Get BTC Raw Transaction",
			"request": {
				"auth": {
					"type": "basic",
					"basic": [
						{
							"key": "password",
							"value": "password123123",
							"type": "string"
						},
						{
							"key": "username",
							"value": "uuuset",
							"type": "string"
						}
					]
				},
				"method": "POST",
				"header": [],
				"body": {
					"mode": "raw",
					"raw": "{\n  \"jsonrpc\": \"2.0\",\n  \"method\": \"getrawtransaction\",\n  \"params\": [\"e2f4b09eb6d46faad5b77acbabec587b5f7719e664548d57c1e62bc90ede9550\", true]\n}",
					"options": {
						"raw": {
							"language": "json"
						}
					}
				},
				"url": {
					"raw": "{{host}}",
					"host": [
						"{{host}}"
					]
				}
			},
			"response": []
		},
		{
			"name": "Status node",
			"request": {
				"auth": {
					"type": "basic",
					"basic": [
						{
							"key": "username",
							"value": "uuuset",
							"type": "string"
						},
						{
							"key": "password",
							"value": "password123123",
							"type": "string"
						}
					]
				},
				"method": "POST",
				"header": [],
				"body": {
					"mode": "raw",
					"raw": "{\n  \"jsonrpc\": \"2.0\",\n  \"method\": \"getblockchaininfo\"\n}",
					"options": {
						"raw": {
							"language": "json"
						}
					}
				},
				"url": {
					"raw": "{{host}}",
					"host": [
						"{{host}}"
					]
				}
			},
			"response": []
		},
		{
			"name": "Validate BTC address",
			"request": {
				"auth": {
					"type": "basic",
					"basic": [
						{
							"key": "password",
							"value": "password123123",
							"type": "string"
						},
						{
							"key": "username",
							"value": "uuuset",
							"type": "string"
						}
					]
				},
				"method": "POST",
				"header": [],
				"body": {
					"mode": "raw",
					"raw": "{\n  \"jsonrpc\": \"2.0\",\n  \"method\": \"validateaddress\",\n  \"params\": [\"mq6Qd7JJKsgBYkMFsGCk24MHMxUkuyTnkU\"]\n}",
					"options": {
						"raw": {
							"language": "json"
						}
					}
				},
				"url": {
					"raw": "{{host}}",
					"host": [
						"{{host}}"
					]
				}
			},
			"response": []
		},
		{
			"name": "Decode BTC script",
			"request": {
				"auth": {
					"type": "basic",
					"basic": [
						{
							"key": "password",
							"value": "password123123",
							"type": "string"
						},
						{
							"key": "username",
							"value": "uuuset",
							"type": "string"
						}
					]
				},
				"method": "POST",
				"header": [],
				"body": {
					"mode": "raw",
					"raw": "{\n  \"jsonrpc\": \"2.0\",\n  \"method\": \"decodescript\",\n  \"params\": [\"76a914690cd6356789d30b99063632e0651a8d0c206c7f88ac\"]\n}",
					"options": {
						"raw": {
							"language": "json"
						}
					}
				},
				"url": {
					"raw": "{{host}}",
					"host": [
						"{{host}}"
					]
				}
			},
			"response": []
		},
		{
			"name": "Decode BTC Raw Transaction",
			"request": {
				"auth": {
					"type": "basic",
					"basic": [
						{
							"key": "password",
							"value": "password123123",
							"type": "string"
						},
						{
							"key": "username",
							"value": "uuuset",
							"type": "string"
						}
					]
				},
				"method": "POST",
				"header": [],
				"body": {
					"mode": "raw",
					"raw": "{\n  \"jsonrpc\": \"2.0\",\n  \"method\": \"decoderawtransaction\",\n  \"params\": [\"020000000278fcb805a97bd6a0575b3827df062de7ead1b05b5815f01c06289922cc12dec1010000006a473044022057b780c9e1f89770435fc6c2877179a4e05e4dad1f6b6fcc672820286d416cd502200b25923f33bd7de934987e311df9159bb1d30973535e6f5dcaefd3ec4c7b73dd012102da2c61d91c67d6615b3471b14d3d54bfbfd181537a2a231cdabcf62bd4fe3dfaffffffff8cdad483c6830a50b400af342abd8edc176b2ea74e3f2b4b1b6f1f52be12107b000000006a47304402203c7cb6aa712a6130150f7c2e9ce7aacb41ac4f1cb8489ec1587992f4e3bdea8a02206afa34284bf26a5229a94b0742722301cee9cea21c828321dc210246946fafcf012102da2c61d91c67d6615b3471b14d3d54bfbfd181537a2a231cdabcf62bd4fe3dfaffffffff0215270000000000001976a914690cd6356789d30b99063632e0651a8d0c206c7f88ac04cf0200000000001976a91443738e06bb02b07ad9c67e9480918d5df41fe35588ac00000000\"]\n}",
					"options": {
						"raw": {
							"language": "json"
						}
					}
				},
				"url": {
					"raw": "{{host}}",
					"host": [
						"{{host}}"
					]
				}
			},
			"response": []
		},
		{
			"name": "Create BTC Raw Transaction",
			"request": {
				"auth": {
					"type": "basic",
					"basic": [
						{
							"key": "password",
							"value": "password123123",
							"type": "string"
						},
						{
							"key": "username",
							"value": "uuuset",
							"type": "string"
						}
					]
				},
				"method": "POST",
				"header": [],
				"body": {
					"mode": "raw",
					"raw": "{\n  \"jsonrpc\": \"2.0\",\n  \"method\": \"createrawtransaction\",\n  \"params\": [\n      [{\"txid\": \"416762055ba9f2d4dc6d543268af2534fe6bbac0be29e0784a5f1bff8ad3f775\", \"vout\": 1}], \n      [{\"mmfbzo2533SFa34ErmYNY4RdVtfw5XYK1u\": 0.00010000}, {\"mq6Qd7JJKsgBYkMFsGCk24MHMxUkuyTnkU\": 0.00010144}]\n      ]\n}",
					"options": {
						"raw": {
							"language": "json"
						}
					}
				},
				"url": {
					"raw": "{{host}}",
					"host": [
						"{{host}}"
					]
				}
			},
			"response": []
		},
		{
			"name": "Send BTC Raw Transaction",
			"request": {
				"auth": {
					"type": "basic",
					"basic": [
						{
							"key": "password",
							"value": "password123123",
							"type": "string"
						},
						{
							"key": "username",
							"value": "uuuset",
							"type": "string"
						}
					]
				},
				"method": "POST",
				"header": [],
				"body": {
					"mode": "raw",
					"raw": "{\n  \"jsonrpc\": \"2.0\",\n  \"method\": \"sendrawtransaction\",\n  \"params\": [\"0100000001a0278af889001d43bcfb938d11907086a3783f459597e177c77bfa9b9263a8f9000000006b483045022100e2fb0bf4e5db0b0abfca51c0ad7dff30dd8a35a4e651a132ff52f9d1bb64df3302200416e5476f26f416ba5323769949ead9ab36d50f2b8014b36fd9432ac2a3f5ed012102da2c61d91c67d6615b3471b14d3d54bfbfd181537a2a231cdabcf62bd4fe3dfaffffffff0210270000000000001976a91443738e06bb02b07ad9c67e9480918d5df41fe35588aca0270000000000001976a914690cd6356789d30b99063632e0651a8d0c206c7f88ac00000000\"]\n}",
					"options": {
						"raw": {
							"language": "json"
						}
					}
				},
				"url": {
					"raw": "{{host}}",
					"host": [
						"{{host}}"
					]
				}
			},
			"response": []
		},
		{
			"name": "Sign BTC Raw Transaction with key",
			"request": {
				"auth": {
					"type": "basic",
					"basic": [
						{
							"key": "password",
							"value": "password123123",
							"type": "string"
						},
						{
							"key": "username",
							"value": "uuuset",
							"type": "string"
						}
					]
				},
				"method": "POST",
				"header": [],
				"body": {
					"mode": "raw",
					"raw": "{\n  \"jsonrpc\": \"2.0\",\n  \"method\": \"signrawtransactionwithkey\",\n  \"params\": [\"020000000275f7d38aff1b5f4a78e029bec0ba6bfe3425af6832546ddcd4f2a95b056267410100000000ffffffffc4ee1493e2ab98fec811d830f4be3de15bde108fea8ed2a427b974accf9c31a70100000000ffffffff0110270000000000001976a91443738e06bb02b07ad9c67e9480918d5df41fe35588ac00000000\", [\"cPRZfnSdhrLvetS9KySaxdqD99yoy1mD3tHhDaMRDqM1gdWf36KD\"], [{\"txid\": \"416762055ba9f2d4dc6d543268af2534fe6bbac0be29e0784a5f1bff8ad3f775\", \"vout\": 1, \"scriptPubKey\": \"76a914690cd6356789d30b99063632e0651a8d0c206c7f88ac\"}]]\n}",
					"options": {
						"raw": {
							"language": "json"
						}
					}
				},
				"url": {
					"raw": "{{host}}",
					"host": [
						"{{host}}"
					]
				}
			},
			"response": []
		},
		{
			"name": "Get BTC Fees",
			"request": {
				"auth": {
					"type": "basic",
					"basic": [
						{
							"key": "password",
							"value": "password123123",
							"type": "string"
						},
						{
							"key": "username",
							"value": "uuuset",
							"type": "string"
						}
					]
				},
				"method": "POST",
				"header": [],
				"body": {
					"mode": "raw",
					"raw": "{\r\n  \"jsonrpc\": \"2.0\",\r\n  \"method\": \"estimatesmartfee\",\r\n  \"params\": [2]\r\n}",
					"options": {
						"raw": {
							"language": "json"
						}
					}
				},
				"url": {
					"raw": "{{host}}",
					"host": [
						"{{host}}"
					]
				}
			},
			"response": []
		},
		{
			"name": "Get Transaction",
			"request": {
				"auth": {
					"type": "basic",
					"basic": [
						{
							"key": "password",
							"value": "password123123",
							"type": "string"
						},
						{
							"key": "username",
							"value": "uuuset",
							"type": "string"
						}
					]
				},
				"method": "POST",
				"header": [],
				"body": {
					"mode": "raw",
					"raw": "{\r\n  \"jsonrpc\": \"2.0\",\r\n  \"method\": \"gettransaction\",\r\n  \"params\": [\"d30777a4c097757d640bac82ef2eb9ff4e089e65e3080e63a873ce49eff53c28\", false, true]\r\n}",
					"options": {
						"raw": {
							"language": "json"
						}
					}
				},
				"url": {
					"raw": "{{host}}",
					"host": [
						"{{host}}"
					]
				}
			},
			"response": []
		}
	]
}